{
  "_format": "hh-sol-artifact-1",
  "contractName": "Moraq",
  "sourceName": "contracts/Moraq.sol",
  "abi": [
    {
      "inputs": [
        {
          "internalType": "uint256",
          "name": "_maxRounds",
          "type": "uint256"
        },
        {
          "internalType": "uint256",
          "name": "_roundQuestions",
          "type": "uint256"
        }
      ],
      "stateMutability": "nonpayable",
      "type": "constructor"
    },
    {
      "anonymous": false,
      "inputs": [
        {
          "indexed": true,
          "internalType": "uint256",
          "name": "questionId",
          "type": "uint256"
        },
        {
          "indexed": true,
          "internalType": "address",
          "name": "responder",
          "type": "address"
        },
        {
          "indexed": false,
          "internalType": "bool",
          "name": "response",
          "type": "bool"
        },
        {
          "indexed": false,
          "internalType": "uint256",
          "name": "stakeAmount",
          "type": "uint256"
        }
      ],
      "name": "QuestionAnswered",
      "type": "event"
    },
    {
      "anonymous": false,
      "inputs": [
        {
          "indexed": true,
          "internalType": "uint256",
          "name": "roundId",
          "type": "uint256"
        },
        {
          "indexed": true,
          "internalType": "uint256",
          "name": "questionId",
          "type": "uint256"
        },
        {
          "indexed": true,
          "internalType": "address",
          "name": "creator",
          "type": "address"
        },
        {
          "indexed": false,
          "internalType": "string",
          "name": "coinID",
          "type": "string"
        },
        {
          "indexed": false,
          "internalType": "int64",
          "name": "targetPrice",
          "type": "int64"
        }
      ],
      "name": "QuestionCreated",
      "type": "event"
    },
    {
      "anonymous": false,
      "inputs": [
        {
          "indexed": true,
          "internalType": "uint256",
          "name": "questionId",
          "type": "uint256"
        },
        {
          "indexed": false,
          "internalType": "address[]",
          "name": "winners",
          "type": "address[]"
        },
        {
          "indexed": false,
          "internalType": "uint256",
          "name": "totalReward",
          "type": "uint256"
        }
      ],
      "name": "WinnersDeclared",
      "type": "event"
    },
    {
      "inputs": [
        {
          "internalType": "uint256",
          "name": "roundId",
          "type": "uint256"
        },
        {
          "internalType": "uint256",
          "name": "questionId",
          "type": "uint256"
        },
        {
          "internalType": "bool",
          "name": "answer",
          "type": "bool"
        },
        {
          "internalType": "uint256",
          "name": "stake",
          "type": "uint256"
        }
      ],
      "name": "answerQuestion",
      "outputs": [],
      "stateMutability": "payable",
      "type": "function"
    },
    {
      "inputs": [
        {
          "internalType": "uint256",
          "name": "roundId",
          "type": "uint256"
        },
        {
          "internalType": "uint256",
          "name": "questionId",
          "type": "uint256"
        },
        {
          "internalType": "string",
          "name": "coinId",
          "type": "string"
        },
        {
          "internalType": "int64",
          "name": "targetPrice",
          "type": "int64"
        },
        {
          "internalType": "address",
          "name": "pythContract",
          "type": "address"
        },
        {
          "internalType": "bytes32",
          "name": "usdPriceId",
          "type": "bytes32"
        }
      ],
      "name": "createQuestion",
      "outputs": [],
      "stateMutability": "nonpayable",
      "type": "function"
    },
    {
      "inputs": [],
      "name": "currentRoundId",
      "outputs": [
        {
          "internalType": "uint256",
          "name": "",
          "type": "uint256"
        }
      ],
      "stateMutability": "view",
      "type": "function"
    },
    {
      "inputs": [
        {
          "internalType": "uint256",
          "name": "roundId",
          "type": "uint256"
        }
      ],
      "name": "declareWinners",
      "outputs": [],
      "stateMutability": "nonpayable",
      "type": "function"
    },
    {
      "inputs": [
        {
          "internalType": "uint256",
          "name": "roundId",
          "type": "uint256"
        }
      ],
      "name": "fetchPrices",
      "outputs": [],
      "stateMutability": "nonpayable",
      "type": "function"
    },
    {
      "inputs": [
        {
          "internalType": "uint256",
          "name": "roundId",
          "type": "uint256"
        },
        {
          "internalType": "uint256",
          "name": "questionId",
          "type": "uint256"
        }
      ],
      "name": "getQuestion",
      "outputs": [
        {
          "components": [
            {
              "internalType": "uint256",
              "name": "questionId",
              "type": "uint256"
            },
            {
              "internalType": "string",
              "name": "coinId",
              "type": "string"
            },
            {
              "internalType": "int64",
              "name": "targetPrice",
              "type": "int64"
            },
            {
              "internalType": "bool",
              "name": "answer",
              "type": "bool"
            },
            {
              "internalType": "address",
              "name": "pythContract",
              "type": "address"
            },
            {
              "internalType": "bytes32",
              "name": "usdPriceId",
              "type": "bytes32"
            },
            {
              "internalType": "contract IPyth",
              "name": "pyth",
              "type": "address"
            }
          ],
          "internalType": "struct MoraqStructs.Question",
          "name": "",
          "type": "tuple"
        }
      ],
      "stateMutability": "view",
      "type": "function"
    },
    {
      "inputs": [],
      "name": "getRoundId",
      "outputs": [
        {
          "internalType": "uint256",
          "name": "",
          "type": "uint256"
        }
      ],
      "stateMutability": "view",
      "type": "function"
    },
    {
      "inputs": [
        {
          "internalType": "uint256",
          "name": "roundId",
          "type": "uint256"
        },
        {
          "internalType": "address",
          "name": "user",
          "type": "address"
        }
      ],
      "name": "getRoundUserAnswers",
      "outputs": [
        {
          "components": [
            {
              "internalType": "uint256",
              "name": "questionId",
              "type": "uint256"
            },
            {
              "internalType": "bool",
              "name": "answer",
              "type": "bool"
            },
            {
              "internalType": "uint256",
              "name": "stake",
              "type": "uint256"
            }
          ],
          "internalType": "struct MoraqStructs.UserAnswer[]",
          "name": "",
          "type": "tuple[]"
        }
      ],
      "stateMutability": "view",
      "type": "function"
    },
    {
      "inputs": [],
      "name": "maxRounds",
      "outputs": [
        {
          "internalType": "uint256",
          "name": "",
          "type": "uint256"
        }
      ],
      "stateMutability": "view",
      "type": "function"
    },
    {
      "inputs": [],
      "name": "owner",
      "outputs": [
        {
          "internalType": "address",
          "name": "",
          "type": "address"
        }
      ],
      "stateMutability": "view",
      "type": "function"
    },
    {
      "inputs": [],
      "name": "proceedToNextRound",
      "outputs": [],
      "stateMutability": "nonpayable",
      "type": "function"
    },
    {
      "inputs": [],
      "name": "roundQuestions",
      "outputs": [
        {
          "internalType": "uint256",
          "name": "",
          "type": "uint256"
        }
      ],
      "stateMutability": "view",
      "type": "function"
    },
    {
      "inputs": [
        {
          "internalType": "uint256",
          "name": "",
          "type": "uint256"
        }
      ],
      "name": "rounds",
      "outputs": [
        {
          "internalType": "uint256",
          "name": "roundId",
          "type": "uint256"
        },
        {
          "internalType": "uint256",
          "name": "startTime",
          "type": "uint256"
        },
        {
          "internalType": "uint256",
          "name": "endTime",
          "type": "uint256"
        },
        {
          "internalType": "uint256",
          "name": "totalStaked",
          "type": "uint256"
        }
      ],
      "stateMutability": "view",
      "type": "function"
    },
    {
      "inputs": [],
      "name": "startNewRound",
      "outputs": [],
      "stateMutability": "nonpayable",
      "type": "function"
    },
    {
      "inputs": [
        {
          "internalType": "address",
          "name": "",
          "type": "address"
        }
      ],
      "name": "userWinnings",
      "outputs": [
        {
          "internalType": "uint256",
          "name": "",
          "type": "uint256"
        }
      ],
      "stateMutability": "view",
      "type": "function"
    },
    {
      "inputs": [],
      "name": "withdrawWinnings",
      "outputs": [],
      "stateMutability": "nonpayable",
      "type": "function"
    }
  ],
  "bytecode": "0x60806040526000600255600660035560036004553480156200002057600080fd5b5060405162002cdf38038062002cdf8339818101604052810190620000469190620000dd565b33600560006101000a81548173ffffffffffffffffffffffffffffffffffffffff021916908373ffffffffffffffffffffffffffffffffffffffff1602179055508160048190555080600381905550505062000124565b600080fd5b6000819050919050565b620000b781620000a2565b8114620000c357600080fd5b50565b600081519050620000d781620000ac565b92915050565b60008060408385031215620000f757620000f66200009d565b5b60006200010785828601620000c6565b92505060206200011a85828601620000c6565b9150509250929050565b612bab80620001346000396000f3fe6080604052600436106100f35760003560e01c8063b0f7ee871161008a578063c7ec895511610059578063c7ec8955146102f8578063cc42e83a14610323578063cfb35e2e1461033a578063f57ee77b14610377576100f3565b8063b0f7ee8714610252578063b30faff11461027b578063bc6d8094146102a4578063bd85948c146102e1576100f3565b80638c65c81f116100c65780638c65c81f1461017f5780638da5cb5b146101bf5780639cbe5efd146101ea578063a815a4d414610215576100f3565b80631faf969b146100f85780636d347ab414610123578063709ea4ab1461013a5780638096d85714610163575b600080fd5b34801561010457600080fd5b5061010d6103a2565b60405161011a9190611a1a565b60405180910390f35b34801561012f57600080fd5b506101386103a8565b005b34801561014657600080fd5b50610161600480360381019061015c9190611a75565b610576565b005b61017d60048036038101906101789190611ada565b610793565b005b34801561018b57600080fd5b506101a660048036038101906101a19190611a75565b6109e6565b6040516101b69493929190611b41565b60405180910390f35b3480156101cb57600080fd5b506101d4610a26565b6040516101e19190611bc7565b60405180910390f35b3480156101f657600080fd5b506101ff610a4c565b60405161020c9190611a1a565b60405180910390f35b34801561022157600080fd5b5061023c60048036038101906102379190611c0e565b610a52565b6040516102499190611a1a565b60405180910390f35b34801561025e57600080fd5b5061027960048036038101906102749190611d0f565b610a6a565b005b34801561028757600080fd5b506102a2600480360381019061029d9190611a75565b610d73565b005b3480156102b057600080fd5b506102cb60048036038101906102c69190611dbe565b6112d4565b6040516102d89190611fd4565b60405180910390f35b3480156102ed57600080fd5b506102f66114af565b005b34801561030457600080fd5b5061030d6115ec565b60405161031a9190611a1a565b60405180910390f35b34801561032f57600080fd5b506103386115f2565b005b34801561034657600080fd5b50610361600480360381019061035c9190611ff6565b611708565b60405161036e9190612127565b60405180910390f35b34801561038357600080fd5b5061038c6117f9565b6040516103999190611a1a565b60405180910390f35b60045481565b6000600160003373ffffffffffffffffffffffffffffffffffffffff1673ffffffffffffffffffffffffffffffffffffffff168152602001908152602001600020541161042a576040517f08c379a0000000000000000000000000000000000000000000000000000000008152600401610421906121a6565b60405180910390fd5b600160003373ffffffffffffffffffffffffffffffffffffffff1673ffffffffffffffffffffffffffffffffffffffff168152602001908152602001600020546000600254815481106104805761047f6121c6565b5b90600052602060002090600a020160070160008282546104a09190612224565b925050819055506000600160003373ffffffffffffffffffffffffffffffffffffffff1673ffffffffffffffffffffffffffffffffffffffff16815260200190815260200160002081905550600060025481548110610502576105016121c6565b5b90600052602060002090600a0201600801339080600181540180825580915050600190039060005260206000200160009091909190916101000a81548173ffffffffffffffffffffffffffffffffffffffff021916908373ffffffffffffffffffffffffffffffffffffffff160217905550565b600560009054906101000a900473ffffffffffffffffffffffffffffffffffffffff1673ffffffffffffffffffffffffffffffffffffffff163373ffffffffffffffffffffffffffffffffffffffff1614610606576040517f08c379a00000000000000000000000000000000000000000000000000000000081526004016105fd906122ca565b60405180910390fd5b600080828154811061061b5761061a6121c6565b5b90600052602060002090600a020190508060020154421015610672576040517f08c379a000000000000000000000000000000000000000000000000000000000815260040161066990612336565b60405180910390fd5b60005b816004018054905081101561078e576000826003016000838152602001908152602001600020905060008160040160009054906101000a900473ffffffffffffffffffffffffffffffffffffffff1673ffffffffffffffffffffffffffffffffffffffff1663a4ae35e08360030154603c6040518363ffffffff1660e01b81526004016107039291906123a0565b608060405180830381865afa158015610720573d6000803e3d6000fd5b505050506040513d601f19601f820116820180604052508101906107449190612564565b90508160020160009054906101000a900460070b60070b816000015160070b138260020160086101000a81548160ff02191690831515021790555050508080600101915050610675565b505050565b8034146107d5576040517f08c379a00000000000000000000000000000000000000000000000000000000081526004016107cc906125dd565b60405180910390fd5b60008085815481106107ea576107e96121c6565b5b90600052602060002090600a0201905080600201544210610840576040517f08c379a000000000000000000000000000000000000000000000000000000000815260040161083790612649565b60405180910390fd5b600060405180606001604052808681526020018515158152602001848152509050808260050160003373ffffffffffffffffffffffffffffffffffffffff1673ffffffffffffffffffffffffffffffffffffffff1681526020019081526020016000206006876108b09190612698565b815481106108c1576108c06121c6565b5b90600052602060002090600302016000820151816000015560208201518160010160006101000a81548160ff02191690831515021790555060408201518160020155905050828260060160003373ffffffffffffffffffffffffffffffffffffffff1673ffffffffffffffffffffffffffffffffffffffff16815260200190815260200160002060008282546109579190612224565b92505081905550828260070160008282546109729190612224565b9250508190555081600801339080600181540180825580915050600190039060005260206000200160009091909190916101000a81548173ffffffffffffffffffffffffffffffffffffffff021916908373ffffffffffffffffffffffffffffffffffffffff160217905550505050505050565b600081815481106109f657600080fd5b90600052602060002090600a02016000915090508060000154908060010154908060020154908060070154905084565b600560009054906101000a900473ffffffffffffffffffffffffffffffffffffffff1681565b60025481565b60016020528060005260406000206000915090505481565b600560009054906101000a900473ffffffffffffffffffffffffffffffffffffffff1673ffffffffffffffffffffffffffffffffffffffff163373ffffffffffffffffffffffffffffffffffffffff1614610afa576040517f08c379a0000000000000000000000000000000000000000000000000000000008152600401610af1906122ca565b60405180910390fd5b6000808881548110610b0f57610b0e6121c6565b5b90600052602060002090600a020190506040518060e0016040528088815260200187878080601f016020809104026020016040519081016040528093929190818152602001838380828437600081840152601f19601f8201169050808301925050505050505081526020018560070b81526020016000151581526020018473ffffffffffffffffffffffffffffffffffffffff1681526020018381526020018473ffffffffffffffffffffffffffffffffffffffff16815250816003016000898152602001908152602001600020600082015181600001556020820151816001019081610bfc91906128cb565b5060408201518160020160006101000a81548167ffffffffffffffff021916908360070b67ffffffffffffffff16021790555060608201518160020160086101000a81548160ff02191690831515021790555060808201518160020160096101000a81548173ffffffffffffffffffffffffffffffffffffffff021916908373ffffffffffffffffffffffffffffffffffffffff16021790555060a0820151816003015560c08201518160040160006101000a81548173ffffffffffffffffffffffffffffffffffffffff021916908373ffffffffffffffffffffffffffffffffffffffff160217905550905050806004018790806001815401808255809150506001900390600052602060002001600090919091909150553373ffffffffffffffffffffffffffffffffffffffff1687897fe34dac111ddacc4c8ead11131c53daf3e215b2d0ee656ca39fdca91b76ab9f34898989604051610d61939291906129e8565b60405180910390a45050505050505050565b600560009054906101000a900473ffffffffffffffffffffffffffffffffffffffff1673ffffffffffffffffffffffffffffffffffffffff163373ffffffffffffffffffffffffffffffffffffffff1614610e03576040517f08c379a0000000000000000000000000000000000000000000000000000000008152600401610dfa906122ca565b60405180910390fd5b6000808281548110610e1857610e176121c6565b5b90600052602060002090600a020190508060020154421015610e6f576040517f08c379a0000000000000000000000000000000000000000000000000000000008152600401610e6690612336565b60405180910390fd5b60008060005b8360080180549050811015611159576000846008018281548110610e9c57610e9b6121c6565b5b9060005260206000200160009054906101000a900473ffffffffffffffffffffffffffffffffffffffff1690506000805b600354811015610f9e5760008760050160008573ffffffffffffffffffffffffffffffffffffffff1673ffffffffffffffffffffffffffffffffffffffff1681526020019081526020016000208281548110610f2c57610f2b6121c6565b5b906000526020600020906003020190508760030160008260000154815260200190815260200160002060020160089054906101000a900460ff1615158160010160009054906101000a900460ff16151503610f90578280610f8c90612a1a565b9350505b508080600101915050610ecd565b50600354810361114a578380610fb390612a1a565b9450508560060160008373ffffffffffffffffffffffffffffffffffffffff1673ffffffffffffffffffffffffffffffffffffffff16815260200190815260200160002054600160008473ffffffffffffffffffffffffffffffffffffffff1673ffffffffffffffffffffffffffffffffffffffff168152602001908152602001600020819055508560060160008373ffffffffffffffffffffffffffffffffffffffff1673ffffffffffffffffffffffffffffffffffffffff16815260200190815260200160002054856110889190612224565b945085600901829080600181540180825580915050600190039060005260206000200160009091909190916101000a81548173ffffffffffffffffffffffffffffffffffffffff021916908373ffffffffffffffffffffffffffffffffffffffff160217905550600160008373ffffffffffffffffffffffffffffffffffffffff1673ffffffffffffffffffffffffffffffffffffffff168152602001908152602001600020548660070160008282546111429190612a62565b925050819055505b50508080600101915050610e75565b50600082846007015461116c9190612a62565b9050818161117a9190612a96565b905060005b84600901805490508110156112c45760008560090182815481106111a6576111a56121c6565b5b9060005260206000200160009054906101000a900473ffffffffffffffffffffffffffffffffffffffff169050600454600254101561125f5760646002546014856111f19190612ac7565b6111fb9190612ac7565b6112059190612a96565b600160008373ffffffffffffffffffffffffffffffffffffffff1673ffffffffffffffffffffffffffffffffffffffff16815260200190815260200160002060008282546112539190612224565b925050819055506112b6565b82600160008373ffffffffffffffffffffffffffffffffffffffff1673ffffffffffffffffffffffffffffffffffffffff16815260200190815260200160002060008282546112ae9190612224565b925050819055505b50808060010191505061117f565b506112cd611803565b5050505050565b6112dc611990565b600083815481106112f0576112ef6121c6565b5b90600052602060002090600a020160030160008381526020019081526020016000206040518060e001604052908160008201548152602001600182018054611337906126f8565b80601f0160208091040260200160405190810160405280929190818152602001828054611363906126f8565b80156113b05780601f10611385576101008083540402835291602001916113b0565b820191906000526020600020905b81548152906001019060200180831161139357829003601f168201915b505050505081526020016002820160009054906101000a900460070b60070b60070b81526020016002820160089054906101000a900460ff161515151581526020016002820160099054906101000a900473ffffffffffffffffffffffffffffffffffffffff1673ffffffffffffffffffffffffffffffffffffffff1673ffffffffffffffffffffffffffffffffffffffff168152602001600382015481526020016004820160009054906101000a900473ffffffffffffffffffffffffffffffffffffffff1673ffffffffffffffffffffffffffffffffffffffff1673ffffffffffffffffffffffffffffffffffffffff1681525050905092915050565b600560009054906101000a900473ffffffffffffffffffffffffffffffffffffffff1673ffffffffffffffffffffffffffffffffffffffff163373ffffffffffffffffffffffffffffffffffffffff161461153f576040517f08c379a0000000000000000000000000000000000000000000000000000000008152600401611536906122ca565b60405180910390fd5b6002600081548092919061155290612a1a565b91905055506000600181600181540180825580915050039060005260206000209050506000806002548154811061158c5761158b6121c6565b5b90600052602060002090600a02019050600254816000018190555042816001018190555062093a80426115bf9190612224565b8160020181905550806002015442106115e9576115dd600254610576565b6115e8600254610d73565b5b50565b60035481565b6000600160003373ffffffffffffffffffffffffffffffffffffffff1673ffffffffffffffffffffffffffffffffffffffff16815260200190815260200160002054905060008111611679576040517f08c379a000000000000000000000000000000000000000000000000000000000815260040161167090612b55565b60405180910390fd5b6000600160003373ffffffffffffffffffffffffffffffffffffffff1673ffffffffffffffffffffffffffffffffffffffff168152602001908152602001600020819055503373ffffffffffffffffffffffffffffffffffffffff166108fc829081150290604051600060405180830381858888f19350505050158015611704573d6000803e3d6000fd5b5050565b60606000838154811061171e5761171d6121c6565b5b90600052602060002090600a020160050160008373ffffffffffffffffffffffffffffffffffffffff1673ffffffffffffffffffffffffffffffffffffffff168152602001908152602001600020805480602002602001604051908101604052809291908181526020016000905b828210156117ed5783829060005260206000209060030201604051806060016040529081600082015481526020016001820160009054906101000a900460ff161515151581526020016002820154815250508152602001906001019061178c565b50505050905092915050565b6000600254905090565b6000806002548154811061181a576118196121c6565b5b90600052602060002090600a020190506202a300816002015461183d9190612224565b421061198d5760005b816009018054905081101561198357600082600901828154811061186d5761186c6121c6565b5b9060005260206000200160009054906101000a900473ffffffffffffffffffffffffffffffffffffffff1690506000600160008373ffffffffffffffffffffffffffffffffffffffff1673ffffffffffffffffffffffffffffffffffffffff1681526020019081526020016000205490506000811115611974576000600160008473ffffffffffffffffffffffffffffffffffffffff1673ffffffffffffffffffffffffffffffffffffffff168152602001908152602001600020819055508173ffffffffffffffffffffffffffffffffffffffff166108fc829081150290604051600060405180830381858888f19350505050158015611972573d6000803e3d6000fd5b505b50508080600101915050611846565b5061198c6114af565b5b50565b6040518060e001604052806000815260200160608152602001600060070b8152602001600015158152602001600073ffffffffffffffffffffffffffffffffffffffff16815260200160008019168152602001600073ffffffffffffffffffffffffffffffffffffffff1681525090565b6000819050919050565b611a1481611a01565b82525050565b6000602082019050611a2f6000830184611a0b565b92915050565b6000604051905090565b600080fd5b600080fd5b611a5281611a01565b8114611a5d57600080fd5b50565b600081359050611a6f81611a49565b92915050565b600060208284031215611a8b57611a8a611a3f565b5b6000611a9984828501611a60565b91505092915050565b60008115159050919050565b611ab781611aa2565b8114611ac257600080fd5b50565b600081359050611ad481611aae565b92915050565b60008060008060808587031215611af457611af3611a3f565b5b6000611b0287828801611a60565b9450506020611b1387828801611a60565b9350506040611b2487828801611ac5565b9250506060611b3587828801611a60565b91505092959194509250565b6000608082019050611b566000830187611a0b565b611b636020830186611a0b565b611b706040830185611a0b565b611b7d6060830184611a0b565b95945050505050565b600073ffffffffffffffffffffffffffffffffffffffff82169050919050565b6000611bb182611b86565b9050919050565b611bc181611ba6565b82525050565b6000602082019050611bdc6000830184611bb8565b92915050565b611beb81611ba6565b8114611bf657600080fd5b50565b600081359050611c0881611be2565b92915050565b600060208284031215611c2457611c23611a3f565b5b6000611c3284828501611bf9565b91505092915050565b600080fd5b600080fd5b600080fd5b60008083601f840112611c6057611c5f611c3b565b5b8235905067ffffffffffffffff811115611c7d57611c7c611c40565b5b602083019150836001820283011115611c9957611c98611c45565b5b9250929050565b60008160070b9050919050565b611cb681611ca0565b8114611cc157600080fd5b50565b600081359050611cd381611cad565b92915050565b6000819050919050565b611cec81611cd9565b8114611cf757600080fd5b50565b600081359050611d0981611ce3565b92915050565b600080600080600080600060c0888a031215611d2e57611d2d611a3f565b5b6000611d3c8a828b01611a60565b9750506020611d4d8a828b01611a60565b965050604088013567ffffffffffffffff811115611d6e57611d6d611a44565b5b611d7a8a828b01611c4a565b95509550506060611d8d8a828b01611cc4565b9350506080611d9e8a828b01611bf9565b92505060a0611daf8a828b01611cfa565b91505092959891949750929550565b60008060408385031215611dd557611dd4611a3f565b5b6000611de385828601611a60565b9250506020611df485828601611a60565b9150509250929050565b611e0781611a01565b82525050565b600081519050919050565b600082825260208201905092915050565b60005b83811015611e47578082015181840152602081019050611e2c565b60008484015250505050565b6000601f19601f8301169050919050565b6000611e6f82611e0d565b611e798185611e18565b9350611e89818560208601611e29565b611e9281611e53565b840191505092915050565b611ea681611ca0565b82525050565b611eb581611aa2565b82525050565b611ec481611ba6565b82525050565b611ed381611cd9565b82525050565b6000819050919050565b6000611efe611ef9611ef484611b86565b611ed9565b611b86565b9050919050565b6000611f1082611ee3565b9050919050565b6000611f2282611f05565b9050919050565b611f3281611f17565b82525050565b600060e083016000830151611f506000860182611dfe565b5060208301518482036020860152611f688282611e64565b9150506040830151611f7d6040860182611e9d565b506060830151611f906060860182611eac565b506080830151611fa36080860182611ebb565b5060a0830151611fb660a0860182611eca565b5060c0830151611fc960c0860182611f29565b508091505092915050565b60006020820190508181036000830152611fee8184611f38565b905092915050565b6000806040838503121561200d5761200c611a3f565b5b600061201b85828601611a60565b925050602061202c85828601611bf9565b9150509250929050565b600081519050919050565b600082825260208201905092915050565b6000819050602082019050919050565b6060820160008201516120786000850182611dfe565b50602082015161208b6020850182611eac565b50604082015161209e6040850182611dfe565b50505050565b60006120b08383612062565b60608301905092915050565b6000602082019050919050565b60006120d482612036565b6120de8185612041565b93506120e983612052565b8060005b8381101561211a57815161210188826120a4565b975061210c836120bc565b9250506001810190506120ed565b5085935050505092915050565b6000602082019050818103600083015261214181846120c9565b905092915050565b600082825260208201905092915050565b7f4e6f2077696e6e696e677320746f2070726f6365656400000000000000000000600082015250565b6000612190601683612149565b915061219b8261215a565b602082019050919050565b600060208201905081810360008301526121bf81612183565b9050919050565b7f4e487b7100000000000000000000000000000000000000000000000000000000600052603260045260246000fd5b7f4e487b7100000000000000000000000000000000000000000000000000000000600052601160045260246000fd5b600061222f82611a01565b915061223a83611a01565b9250828201905080821115612252576122516121f5565b5b92915050565b7f4f6e6c792074686520636f6e7472616374206f776e65722063616e206578656360008201527f7574652074686973000000000000000000000000000000000000000000000000602082015250565b60006122b4602883612149565b91506122bf82612258565b604082019050919050565b600060208201905081810360008301526122e3816122a7565b9050919050565b7f526f756e64206973207374696c6c206163746976650000000000000000000000600082015250565b6000612320601583612149565b915061232b826122ea565b602082019050919050565b6000602082019050818103600083015261234f81612313565b9050919050565b61235f81611cd9565b82525050565b6000819050919050565b600061238a61238561238084612365565b611ed9565b611a01565b9050919050565b61239a8161236f565b82525050565b60006040820190506123b56000830185612356565b6123c26020830184612391565b9392505050565b600080fd5b7f4e487b7100000000000000000000000000000000000000000000000000000000600052604160045260246000fd5b61240682611e53565b810181811067ffffffffffffffff82111715612425576124246123ce565b5b80604052505050565b6000612438611a35565b905061244482826123fd565b919050565b60008151905061245881611cad565b92915050565b600067ffffffffffffffff82169050919050565b61247b8161245e565b811461248657600080fd5b50565b60008151905061249881612472565b92915050565b60008160030b9050919050565b6124b48161249e565b81146124bf57600080fd5b50565b6000815190506124d1816124ab565b92915050565b6000815190506124e681611a49565b92915050565b600060808284031215612502576125016123c9565b5b61250c608061242e565b9050600061251c84828501612449565b600083015250602061253084828501612489565b6020830152506040612544848285016124c2565b6040830152506060612558848285016124d7565b60608301525092915050565b60006080828403121561257a57612579611a3f565b5b6000612588848285016124ec565b91505092915050565b7f5374616b6520616d6f756e74206d69736d617463680000000000000000000000600082015250565b60006125c7601583612149565b91506125d282612591565b602082019050919050565b600060208201905081810360008301526125f6816125ba565b9050919050565b7f526f756e642068617320656e6465640000000000000000000000000000000000600082015250565b6000612633600f83612149565b915061263e826125fd565b602082019050919050565b6000602082019050818103600083015261266281612626565b9050919050565b7f4e487b7100000000000000000000000000000000000000000000000000000000600052601260045260246000fd5b60006126a382611a01565b91506126ae83611a01565b9250826126be576126bd612669565b5b828206905092915050565b7f4e487b7100000000000000000000000000000000000000000000000000000000600052602260045260246000fd5b6000600282049050600182168061271057607f821691505b602082108103612723576127226126c9565b5b50919050565b60008190508160005260206000209050919050565b60006020601f8301049050919050565b600082821b905092915050565b60006008830261278b7fffffffffffffffffffffffffffffffffffffffffffffffffffffffffffffffff8261274e565b612795868361274e565b95508019841693508086168417925050509392505050565b60006127c86127c36127be84611a01565b611ed9565b611a01565b9050919050565b6000819050919050565b6127e2836127ad565b6127f66127ee826127cf565b84845461275b565b825550505050565b600090565b61280b6127fe565b6128168184846127d9565b505050565b5b8181101561283a5761282f600082612803565b60018101905061281c565b5050565b601f82111561287f5761285081612729565b6128598461273e565b81016020851015612868578190505b61287c6128748561273e565b83018261281b565b50505b505050565b600082821c905092915050565b60006128a260001984600802612884565b1980831691505092915050565b60006128bb8383612891565b9150826002028217905092915050565b6128d482611e0d565b67ffffffffffffffff8111156128ed576128ec6123ce565b5b6128f782546126f8565b61290282828561283e565b600060209050601f8311600181146129355760008415612923578287015190505b61292d85826128af565b865550612995565b601f19841661294386612729565b60005b8281101561296b57848901518255600182019150602085019450602081019050612946565b868310156129885784890151612984601f891682612891565b8355505b6001600288020188555050505b505050505050565b82818337600083830152505050565b60006129b88385612149565b93506129c583858461299d565b6129ce83611e53565b840190509392505050565b6129e281611ca0565b82525050565b60006040820190508181036000830152612a038185876129ac565b9050612a1260208301846129d9565b949350505050565b6000612a2582611a01565b91507fffffffffffffffffffffffffffffffffffffffffffffffffffffffffffffffff8203612a5757612a566121f5565b5b600182019050919050565b6000612a6d82611a01565b9150612a7883611a01565b9250828203905081811115612a9057612a8f6121f5565b5b92915050565b6000612aa182611a01565b9150612aac83611a01565b925082612abc57612abb612669565b5b828204905092915050565b6000612ad282611a01565b9150612add83611a01565b9250828202612aeb81611a01565b91508282048414831517612b0257612b016121f5565b5b5092915050565b7f4e6f2077696e6e696e677320746f207769746864726177000000000000000000600082015250565b6000612b3f601783612149565b9150612b4a82612b09565b602082019050919050565b60006020820190508181036000830152612b6e81612b32565b905091905056fea264697066735822122006e8ae5875310a3b6a093305d3115926bd6b1ad990040d58b66218fb7d38d7f664736f6c63430008180033",
  "linkReferences": {},
  "deployedLinkReferences": {}
}